:020000020000FC
:100000000C0C0C140C24142424242421212122213E
:0E00100022220C220808000404080C941E0092
:04002C000C949E0092
:100038000C94C000F894112440E08FD00A958CE30A
:1000480090E05CE06CE03FEF3DBF38E03EBF3FEF43
:1000580034B937B93AB955B968B910E434E23093CC
:1000680089003FE93093880030E0309380003CE01D
:100078003093810030916F00326030936F003EE41E
:100088003093270032E03093240035E03093250088
:1000980030916E00326030936E0078948030F1F7C2
:1000A80030916E003D7F30936E00903091F091302A
:1000B80099F09230A1F09330A9F09430B1F09530D6
:1000C800B9F09630C1F09730C9F09830D1F0993036
:1000D800D9F091E084E01BC092E087E118C093E07A
:1000E80084E015C094E084E112C095E083E00FC07D
:1000F80096E085E10CC097E081E009C098E083E0D4
:1001080006C099E081E003C090E08CE300C0E0E025
:10011800F0E0E90FF11DE90FF11D559155B9649112
:1001280068B932E03093150030916E003260309338
:100138006E00B4CF3FB73F938A95003031F001305D
:1001480011F4203029F00A9505C009E02A9502C06B
:100158000DD000C03F913FBF1895E4E1F0E0342F87
:10016800330FE30FF11D2591049108954395433012
:1001780008F040E0F2DF08953FB73F9330EC1327D3
:10018800312F103419F0322B3BB902C0302B3BB958
:060198003F913FBF1895E6
:00000001FF
