:020000020000FC
:0200000016C028
:10002C0024C0F894112440E041D03FEF34B93AB9E0
:10003C0011E034EF3093890033E230938800309133
:10004C006F00326030936F0030E0309380003CE002
:10005C003093810078941BB9113011F405B901C0AB
:10006C0025B933E0132710D0F6CF3FB73F930030BC
:10007C0029F4203029F009E02A9503C00A9501C023
:10008C001ED03F913FBF189560E05EE390E8915021
:10009C0050406040E0F7089500050004020300049E
:1000AC00020000030201000100030001E4EAF0E099
:1000BC00342F330FE30FF11D2591049108954395CF
:0A00CC004A3008F040E0F2DF08952A
:00000001FF
